:020000040800F2
:1000000000000220C5820008F17F0008F97F000887
:10001000018000080980000811800008000000002D
:100020000000000000000000000000000174000853
:1000300019800008000000005176000827800008A1
:100040001583000815830008158300081583000830
:100050001583000815830008158300081583000820
:100060001583000815830008158300081583000810
:100070001583000815830008158300081583000800
:1000800015830008158300081583000815830008F0
:10009000418000085580000815830008158300087A
:1000A00015830008158300081583000815830008D0
:1000B00015830008158300081583000815830008C0
:1000C00015830008158300081583000815830008B0
:1000D000158300086980000815830008158300084F
:1000E0001583000815830008158300081583000890
:1000F0001583000815830008158300081583000880
:10010000158300081583000815830008158300086F
:10011000158300081583000815830008158300085F
:10012000158300087D800008918000081583000871
:10013000158300081583000815830008158300083F
:10014000158300081583000815830008158300082F
:1001500015830008A5800008B9800008CD8000083C
:10016000158300081583000815830008158300080F
:10017000158300081583000815830008000000009F
:08018000158300081583000837
:1001900081F0004102E000BF83F0004330B54FEA38
:1001A00041044FEA430594EA050F08BF90EA020FA5
:1001B0001FBF54EA000C55EA020C7FEA645C7FEA38
:1001C000655C00F0E2804FEA5454D4EB5555B8BF5B
:1001D0006D420CDD2C4480EA020281EA030382EACC
:1001E000000083EA010180EA020281EA0303362D5E
:1001F00088BF30BD11F0004F4FEA01314FF4801C31
:100200004CEA113102D0404261EB410113F0004F42
:100210004FEA03334CEA133302D0524263EB4303F9
:1002200094EA050F00F0A780A4F10104D5F1200E97
:100230000DDB02FA0EFC22FA05F2801841F10001F2
:1002400003FA0EF2801843FA05F359410EE0A5F1C6
:1002500020050EF1200E012A03FA0EFC28BF4CF0F7
:10026000020C43FA05F3C01851EBE37101F00045AD
:1002700007D54FF0000EDCF1000C7EEB00006EEBBA
:100280000101B1F5801F1BD3B1F5001F0CD3490844
:100290005FEA30004FEA3C0C04F101044FEA44529B
:1002A00012F5800F80F09A80BCF1004F08BF5FEA22
:1002B000500C50F1000041EB045141EA050130BD02
:1002C0005FEA4C0C404141EB0101013C28BFB1F514
:1002D000801FE9D291F0000F04BF01460020B1FA5F
:1002E00081F308BF2033A3F10B03B3F120020CDA32
:1002F0000C3208DD02F1140CC2F10C0201FA0CF010
:1003000021FA02F10CE002F11402D8BFC2F1200C74
:1003100001FA02F120FA0CFCDCBF41EA0C0190402A
:10032000E41AA2BF01EB0451294330BD6FEA040473
:100330001F3C1CDA0C340EDC04F11404C4F120025E
:1003400020FA04F001FA02F340EA030021FA04F370
:1003500045EA030130BDC4F10C04C4F1200220FAC7
:1003600002F001FA04F340EA0300294630BD21FA05
:1003700004F0294630BD94F0000F83F4801306BFCB
:1003800081F480110134013D4EE77FEA645C18BFBF
:100390007FEA655C29D094EA050F08BF90EA020F56
:1003A00005D054EA000C04BF1946104630BD91EA4E
:1003B000030F1EBF0021002030BD5FEA545C05D151
:1003C0004000494128BF41F0004130BD14F5800490
:1003D0003CBF01F5801130BD01F0004545F0FE4104
:1003E00041F470014FF0000030BD7FEA645C1ABF39
:1003F000194610467FEA655C1CBF0B46024650EA70
:10040000013406BF52EA033591EA030F41F400219B
:1004100030BD00BF90F0000F04BF0021704730B521
:100420004FF4806404F132044FF000054FF00001F6
:1004300050E700BF90F0000F04BF0021704730B5B7
:100440004FF4806404F1320410F0004548BF40428C
:100450004FF000013EE700BF42004FEAE2014FEAE1
:1004600031014FEA02701FBF12F07F4393F07F4FBC
:1004700081F06051704732F07F4208BF704793F0BF
:100480007F4F04BF41F40021704730B54FF46074D2
:1004900001F0004521F000411CE700BF50EA0102D5
:1004A00008BF704730B54FF000050AE050EA01027E
:1004B00008BF704730B511F0004502D5404261EBEE
:1004C00041014FF4806404F132045FEA915C3FF42F
:1004D000D8AE4FF003025FEADC0C18BF03325FEACC
:1004E000DC0C18BF033202EBDC02C2F1200300FA7D
:1004F00003FC20FA02F001FA03FE40EA0E0021FAA2
:1005000002F11444BDE600BF4FEA410212F50012A9
:1005100015D211D56FF47873B3EB625212D94FEA4A
:10052000C12343F0004343EA505311F0004F23FA34
:1005300002F018BF404270474FF00000704750EA89
:10054000013005D111F0004008BF6FF00040704746
:100550004FF00000704700BF53B94AB9002908BFE7
:1005600000281CBF4FF0FF314FF0FF3000F00CB8F7
:10057000ADF1080C6DE904CE10F056FADDF804E098
:10058000DDE9022304B07047704700BF10F8012B6B
:1005900011F8013B012A28BF9A42F7D0D01A7047C0
:1005A00001F0FF01102A2BDB10F0070F08D010F824
:1005B000013B013A8B422DD010F0070F42B3F6D128
:1005C000F0B441EA012141EA014122F007047FF041
:1005D00000070023F0E80256083C85EA010586EA98
:1005E000010685FA47F5A3FA87F586FA47F6A5FAD4
:1005F00087F68EB9EED1F0BC01F0FF0102F00702E0
:1006000032B110F8013B013A83EA010313B1F8D18A
:100610000020704701387047002D06BF354603386B
:10062000073815F0010F07D1013015F4807F02BFA4
:10063000013015F4C03F0130F0BC0138704700BFF5
:1006400070B54FF0FF0C4CF4E06C1CEA11541DBF68
:100650001CEA135594EA0C0F95EA0C0F00F0DEF833
:100660002C4481EA030621EA4C5123EA4C5350EA18
:10067000013518BF52EA033541F4801143F4801369
:1006800038D0A0FB02CE4FF00005E1FB02E506F0FA
:100690000042E0FB03E54FF00006E1FB03569CF04F
:1006A000000F18BF4EF0010EA4F1FF04B6F5007F55
:1006B00064F5407404D25FEA4E0E6D4146EB0606C7
:1006C00042EAC62141EA55514FEAC52040EA5E5050
:1006D0004FEACE2EB4F1FD0C88BFBCF5E06F1ED8FA
:1006E000BEF1004F08BF5FEA500E50F1000041EB31
:1006F000045170BD06F0004646EA010140EA0200DE
:1007000081EA0301B4EB5C04C2BFD4EB0C0541EAFF
:10071000045170BD41F480114FF0000E013C00F314
:10072000AB8014F1360FDEBF002001F0004170BD38
:10073000C4F10004203C35DA0C341BDC04F1140451
:10074000C4F1200500FA05F320FA04F001FA05F2DD
:1007500040EA020001F0004221F0004110EBD370AA
:1007600021FA04F642EB06015EEA430E08BF20EAD6
:10077000D37070BDC4F10C04C4F1200500FA04F379
:1007800020FA05F001FA04F240EA020001F000410B
:1007900010EBD37041F100015EEA430E08BF20EA7E
:1007A000D37070BDC4F1200500FA05F24EEA020EC6
:1007B00020FA04F301FA05F243EA020321FA04F0F5
:1007C00001F0004121FA04F220EA020000EBD370AC
:1007D0005EEA430E08BF20EAD37070BD94F0000FAC
:1007E0000FD101F00046400041EB010111F4801FE0
:1007F00008BF013CF7D041EA060195F0000F18BF91
:10080000704703F00046520043EB030313F4801FCC
:1008100008BF013DF7D043EA0603704794EA0C0F86
:100820000CEA135518BF95EA0C0F0CD050EA41069C
:1008300018BF52EA4306D1D181EA030101F0004119
:100840004FF0000070BD50EA410606BF1046194641
:1008500052EA430619D094EA0C0F02D150EA01364D
:1008600013D195EA0C0F05D152EA03361CBF10468E
:1008700019460AD181EA030101F0004141F0FE412D
:1008800041F470014FF0000070BD41F0FE4141F4B1
:10089000780170BD70B54FF0FF0C4CF4E06C1CEAB1
:1008A00011541DBF1CEA135594EA0C0F95EA0C0F66
:1008B00000F0A7F8A4EB050481EA030E52EA033521
:1008C0004FEA013100F088804FEA03334FF0805542
:1008D00045EA131343EA12634FEA022245EA11156F
:1008E00045EA10654FEA00260EF000419D4208BF20
:1008F000964244F1FD0404F5407402D25B084FEACD
:100900003202B61A65EB03055B084FEA32024FF478
:1009100080104FF4002CB6EB020E75EB030E22BFD5
:10092000B61A754640EA0C005B084FEA3202B6EB95
:10093000020E75EB030E22BFB61A754640EA5C0044
:100940005B084FEA3202B6EB020E75EB030E22BFD4
:10095000B61A754640EA9C005B084FEA3202B6EBD5
:10096000020E75EB030E22BFB61A754640EADC0094
:1009700055EA060E18D04FEA051545EA16754FEAF6
:1009800006164FEAC30343EA52734FEAC2025FEA14
:100990001C1CC0D111F4801F0BD141EA00014FF0A3
:1009A00000004FF0004CB6E711F4801F04BF014374
:1009B0000020B4F1FD0C88BFBCF5E06F3FF6AFAE90
:1009C000B5EB030C04BFB6EB020C5FEA500C50F120
:1009D000000041EB045170BD0EF0004E4EEA1131A3
:1009E00014EB5C04C2BFD4EB0C0541EA045170BDAA
:1009F00041F480114FF0000E013C90E645EA060EEE
:100A00008DE60CEA135594EA0C0F08BF95EA0C0F1B
:100A10003FF43BAF94EA0C0F0AD150EA01347FF463
:100A200034AF95EA0C0F7FF425AF104619462CE73A
:100A300095EA0C0F06D152EA03353FF4FDAE10469D
:100A4000194622E750EA410618BF52EA43067FF4EE
:100A5000C5AE50EA41047FF40DAF52EA43057FF47E
:100A6000EBAE12E74FF0FF3C06E000BF4FF0010C89
:100A700002E000BF4FF0010C4DF804CD4FEA410CED
:100A80007FEA6C5C4FEA430C18BF7FEA6C5C1BD0BA
:100A900001B050EA410C0CBF52EA430C91EA030F3B
:100AA00002BF90EA020F0020704710F1000F91EA98
:100AB000030F58BF994208BF90422CBFD8176FEA66
:100AC000E37040F0010070474FEA410C7FEA6C5C34
:100AD00002D150EA013C07D14FEA430C7FEA6C5C3B
:100AE000D6D152EA033CD3D05DF8040B704700BF67
:100AF0008446104662468C461946634600E000BFB5
:100B000001B5FFF7B7FF002848BF10F1000F01BD86
:100B10004DF808EDFFF7F4FF0CBF012000205DF851
:100B200008FB00BF4DF808EDFFF7EAFF34BF0120D6
:100B300000205DF808FB00BF4DF808EDFFF7E0FF6F
:100B400094BF012000205DF808FB00BF4DF808EDC0
:100B5000FFF7CEFF94BF012000205DF808FB00BF27
:100B60004DF808EDFFF7C4FF34BF012000205DF809
:100B700008FB00BF4FEA410C7FEA6C5C02D150EAEF
:100B8000013C0AD14FEA430C7FEA6C5C02D152EA85
:100B9000033C02D14FF0000070474FF00100704756
:100BA0004A0011D212F5001211D20DD56FF47873EC
:100BB000B3EB62520ED44FEAC12343F0004343EA41
:100BC000505323FA02F070474FF00000704750EA8C
:100BD000013002D14FF0FF3070474FF000007047F6
:100BE0004FEA4102B2F1E04324BFB3F5001CDCF14F
:100BF000FE5C0DD901F0004C4FEAC0024CEA507087
:100C0000B2F1004F40EB830008BF20F001007047B5
:100C100011F0804F21D113F13872BCBF01F00040B8
:100C2000704741F480114FEA5252C2F11802C2F1EA
:100C3000200C10FA0CF320FA02F018BF40F001006B
:100C40004FEAC1234FEAD32303FA0CFC40EA0C001D
:100C500023FA02F34FEA4303CCE77FEA625307D15A
:100C600050EA01331EBF4FF0FE4040F44000704791
:100C700001F0004040F0FE4040F40000704700BF2B
:100C80000348044B834202D0034B03B1184770471B
:100C9000E0010020E0010020000000000548064BB4
:100CA0001B1AD90F01EBA301491002D0034B03B16A
:100CB00018477047E0010020E0010020000000001C
:100CC00010B5064C237843B9FFF7DAFF044B13B194
:100CD0000448AFF300800123237010BDE001002021
:100CE000000000005C3E010808B5054B1BB105493A
:100CF0000548AFF30080BDE80840FFF7CFBF00BF55
:100D000000000000E40100205C3E010880B400AF58
:100D1000064BD3F88830054A43F47003C2F8883094
:100D200000BFBD465DF8047B704700BF00ED00E0EA
:100D300080B584B000AF78607B68002B01D10123BF
:100D4000EDE07B6893F82030DBB2002B02D17868AD
:100D500006F0EEFE7B681B681A687B681B6842F031
:100D600001021A6002F03AFAF86012E002F036FA74
:100D70000246FB68D31A0A2B0BD97B685B6A43F4E3
:100D800000327B685A627B68052283F820200123A9
:100D9000C5E07B681B685B6803F00103002BE5D0AE
:100DA0007B681B681A687B681B6822F002021A6065
:100DB00002F014FAF86012E002F010FA0246FB6842
:100DC000D31A0A2B0BD97B685B6A43F400327B6829
:100DD0005A627B68052283F8202001239FE07B680C
:100DE0001B685B6803F00203002BE5D17B681B7E68
:100DF000012B08D17B681B681A687B681B6842F06E
:100E000080021A6007E07B681B681A687B681B68B1
:100E100022F080021A607B685B7E012B08D17B6820
:100E20001B681A687B681B6842F040021A6007E082
:100E30007B681B681A687B681B6822F040021A6096
:100E40007B689B7E012B08D17B681B681A687B68D6
:100E50001B6842F020021A6007E07B681B681A6872
:100E60007B681B6822F020021A607B68DB7E012B06
:100E700008D17B681B681A687B681B6822F0100227
:100E80001A6007E07B681B681A687B681B6842F081
:100E900010021A607B681B7F012B08D17B681B68DE
:100EA0001A687B681B6842F008021A6007E07B68DA
:100EB0001B681A687B681B6822F008021A607B684E
:100EC0005B7F012B08D17B681B681A687B681B68F5
:100ED00042F004021A6007E07B681B681A687B68AE
:100EE0001B6822F004021A607B689A687B68DB68E2
:100EF0001A437B681B691A437B685B6942EA0301FA
:100F00007B685B685A1E7B681B680A43DA617B68F2
:100F100000225A627B68012283F8202000231846B1
:100F20001037BD4680BD000080B487B000AF786048
:100F300039607B6893F82030FB75FB7D012B03D073
:100F4000FB7D022B40F0BE80654B3B613B69D3F8D3
:100F5000003243F001023B69C3F800223B69D3F839
:100F6000003223F47C523B69C3F800223B69D3F87A
:100F700000223B685B6A1B021A433B69C3F80022EC
:100F80003B685B6903F01F03012202FA03F3FB6075
:100F90003B69D3F81C22FB68DB431A403B69C3F86A
:100FA0001C223B68DB69002B23D13B69D3F80C2260
:100FB000FB68DB431A403B69C3F80C223B68DB68E3
:100FC00019043B685B689BB23A68526919433B69F4
:100FD000483243F832103B689B6819043B681B6831
:100FE0009AB23B685B690A4339694833DB000B44BA
:100FF0005A603B68DB69012B22D13B69D3F80C2294
:10100000FB681A433B69C3F80C223B681B68190450
:101010003B685B689BB23A68526919433B69483246
:1010200043F832103B689B6819043B68DB689AB24E
:101030003B685B690A4339694833DB000B445A60FB
:101040003B689B69002B09D13B69D3F80422FB68FC
:10105000DB431A403B69C3F8042207E03B69D3F83D
:101060000422FB681A433B69C3F804223B681B69EE
:10107000002B09D13B69D3F81422FB68DB431A40EB
:101080003B69C3F8142207E03B69D3F81422FB68DC
:101090001A433B69C3F814223B681B6A012B07D132
:1010A0003B69D3F81C22FB681A433B69C3F81C2236
:1010B0003B69D3F8003223F001023B69C3F80022F8
:1010C000002306E07B685B6A43F480227B685A62F7
:1010D000012318461C37BD465DF8047B704700BFEE
:1010E0000064004080B584B000AF78607B6893F8FE
:1010F0002030DBB2012B2ED17B68022283F8202026
:101100007B681B681A687B681B6822F001021A6002
:1011100002F064F8F86012E002F060F80246FB6842
:10112000D31A0A2B0BD97B685B6A43F400327B68C5
:101130005A627B68052283F82020012312E07B6835
:101140001B685B6803F00103002BE5D17B6800227C
:101150005A62002306E07B685B6A43F400227B68E6
:101160005A62012318461037BD4680BD80B489B04D
:1011700000AFF860B9607A603B60FB6893F820309C
:10118000FB77FB681B689B68BB61FB7F012B03D06F
:10119000FB7F022B40F0AD80BB6903F08063002B26
:1011A0000AD1BB6903F00063002B05D1BB6903F0D2
:1011B0008053002B00F09580BB691B0E03F00303E6
:1011C0007B6101227B699A403B681A60BB689B681F
:1011D000002B0DD1BB681B685A05BB68DB68F9683A
:1011E00009681A437B6918331B010B441A600FE02E
:1011F000BB685B68DA00BB689B681A43BB68DB6846
:10120000F96809681A437B6918331B010B441A609B
:10121000FB681968BB681A697B6918331B010B44AA
:1012200004331A60BB681B7D012B11D1FB681A685F
:101230007B6918331B01134404331B68FA68116877
:1012400043F480727B6918331B010B4404331A602A
:101250007B6807331B781A067B6806331B781B04F0
:101260001A437B6805331B781B0213437A680432E8
:1012700012781046FA68116843EA00027B691B0184
:101280000B4403F5C6731A607B6803331B781A0698
:101290007B6802331B781B041A437B6801331B787D
:1012A0001B0213437A6812781046FA68116843EA01
:1012B00000027B691B010B4403F5C4731A60FB68D1
:1012C0001A687B6918331B0113441B68FA6811689C
:1012D00043F001027B6918331B010B441A600023A1
:1012E0000EE0FB685B6A43F40012FB685A6201235C
:1012F00006E0FB685B6A43F48022FB685A620123C4
:1013000018462437BD465DF8047B704780B485B02D
:1013100000AF78600023FB607B6893F82030FB729D
:10132000FB7A012B02D0FB7A022B1DD17B681B6854
:101330009B6803F08063002B02D0FB680133FB60E5
:101340007B681B689B6803F00063002B02D0FB687E
:101350000133FB607B681B689B6803F08053002BA4
:1013600002D0FB680133FB60FB6818461437BD46AA
:101370005DF8047B704780B487B000AFF860B96057
:101380007A603B60FB6893F82030FB75FB7D012B96
:1013900003D0FB7D022B40F00381BB68002B0ED1F4
:1013A000FB681B68DB6803F00303002B16D1FB68A6
:1013B0005B6A43F40012FB685A620123F7E0FB68A2
:1013C0001B681B6903F00303002B07D1FB685B6AF2
:1013D00043F40012FB685A620123E8E0FB681A68D4
:1013E000BB681B331B0113441B6803F004027B68BA
:1013F0009A607B689B68002B0CD1FB681A68BB68FD
:101400001B331B0113441B685B0DC3F30A027B688B
:101410001A600BE0FB681A68BB681B331B0113449E
:101420001B68DB0823F060427B685A60FB681A681F
:10143000BB681B331B0113441B6803F002027B686B
:10144000DA60FB681A68BB681B331B011344043362
:101450001B6803F00803002B03D07B6808221A6185
:101460000BE0FB681A68BB681B331B011344043391
:101470001B6803F00F027B681A61FB681A68BB687F
:101480001B331B01134404331B681B0ADAB27B684D
:101490009A61FB681A68BB681B331B011344043351
:1014A0001B681B0C9AB27B685A61FB681A68BB68A0
:1014B0001B01134403F5DC731B68DAB23B681A7036
:1014C000FB681A68BB681B01134403F5DC731B68D7
:1014D0001A0A3B680133D2B21A70FB681A68BB68FB
:1014E0001B01134403F5DC731B681A0C3B680233C1
:1014F000D2B21A70FB681A68BB681B01134403F56B
:10150000DC731B681A0E3B680333D2B21A70FB6897
:101510001A68BB681B01134403F5DE731A683B6845
:101520000433D2B21A70FB681A68BB681B011344FB
:1015300003F5DE731B681A0A3B680533D2B21A70D2
:10154000FB681A68BB681B01134403F5DE731B6854
:101550001A0C3B680633D2B21A70FB681A68BB6873
:101560001B01134403F5DE731B681A0E3B68073337
:10157000D2B21A70BB68002B08D1FB681B68DA680E
:10158000FB681B6842F02002DA6007E0FB681B681A
:101590001A69FB681B6842F020021A61002306E00A
:1015A000FB685B6A43F48022FB685A620123184699
:1015B0001C37BD465DF8047B704780B485B000AF32
:1015C000786039607B6893F82030FB73FB7B012BDC
:1015D00002D0FB7B022B09D17B681B6859697B68B1
:1015E0001B683A680A435A61002306E07B685B6A1D
:1015F00043F480227B685A62012318461437BD46A3
:101600005DF8047B704780B58AB000AF7860002336
:101610007B627B681B685B693B627B681B685B68FD
:10162000FB617B681B689B68BB617B681B68DB6830
:101630007B617B681B681B693B617B681B689B69DE
:10164000FB603B6A03F00103002B7CD0BB6903F015
:101650000103002B23D07B681B6801229A60BB69C1
:1016600003F00203002B03D0786800F083F916E042
:10167000BB6903F00403002B04D07B6A43F40063CE
:101680007B620CE0BB6903F00803002B04D07B6A8B
:1016900043F480537B6202E0786800F089F9BB690B
:1016A00003F48073002B24D07B681B684FF4807296
:1016B0009A60BB6903F40073002B03D0786800F0D4
:1016C00063F916E0BB6903F48063002B04D07B6AE6
:1016D00043F400537B620CE0BB6903F40063002B0E
:1016E00004D07B6A43F480437B6202E0786800F0B8
:1016F00069F9BB6903F48033002B24D07B681B6835
:101700004FF480329A60BB6903F40033002B03D09E
:10171000786800F043F916E0BB6903F48023002BDE
:1017200004D07B6A43F400437B620CE0BB6903F4A2
:101730000023002B04D07B6A43F480337B6202E0F9
:10174000786800F049F93B6A03F00803002B0CD0DD
:101750007B6903F01003002B07D07B6A43F400730E
:101760007B627B681B681022DA603B6A03F004032B
:10177000002B0BD07B6903F00803002B06D07B689D
:101780001B680822DA60786800F030F93B6A03F0E1
:101790000203002B09D07B681B68DB6803F003039E
:1017A000002B02D078680AF0B5FD3B6A03F04003D5
:1017B000002B0CD03B6903F01003002B07D07B6A91
:1017C00043F480637B627B681B6810221A613B6A6A
:1017D00003F02003002B0BD03B6903F00803002B20
:1017E00006D07B681B6808221A61786800F012F93D
:1017F0003B6A03F01003002B09D07B681B681B6950
:1018000003F00303002B02D0786800F0F9F83B6A7C
:1018100003F40033002B0BD0FB6903F01003002B03
:1018200006D07B681B6810225A60786800F0FCF8CC
:101830003B6A03F48033002B0BD0FB6903F00803F1
:10184000002B06D07B681B6808225A60786800F07D
:10185000F5F83B6A03F40043002B7BD0FB6903F0EF
:101860000403002B72D03B6A03F48073002B08D072
:10187000FB6803F00103002B03D07B6A43F00103F4
:101880007B623B6A03F40073002B08D0FB6803F013
:101890000203002B03D07B6A43F002037B623B6AA6
:1018A00003F48063002B08D0FB6803F00403002BD3
:1018B00003D07B6A43F004037B623B6A03F400635A
:1018C000002B43D0FB6803F07003002B3ED0FB6875
:1018D00003F07003602B2BD0602B2ED8502B22D01E
:1018E000502B2AD8402B19D0402B26D8302B10D083
:1018F000302B22D8102B02D0202B05D01DE07B6A84
:1019000043F008037B6219E07B6A43F010037B62BB
:1019100014E07B6A43F020037B620FE07B6A43F0B4
:1019200040037B620AE07B6A43F080037B6205E050
:101930007B6A43F480737B6200E000BF7B681B68B6
:101940009A697B681B6822F070029A617B681B6849
:1019500004225A607B6A002B08D07B685A6A7B6A33
:101960001A437B685A62786800F072F800BF283723
:10197000BD4680BD80B483B000AF786000BF0C3737
:10198000BD465DF8047B704780B483B000AF7860DB
:1019900000BF0C37BD465DF8047B704780B483B050
:1019A00000AF786000BF0C37BD465DF8047B704720
:1019B00080B483B000AF786000BF0C37BD465DF8DF
:1019C000047B704780B483B000AF786000BF0C37F1
:1019D000BD465DF8047B704780B483B000AF78608B
:1019E00000BF0C37BD465DF8047B704780B483B000
:1019F00000AF786000BF0C37BD465DF8047B7047D0
:101A000080B483B000AF786000BF0C37BD465DF88E
:101A1000047B704780B483B000AF786000BF0C37A0
:101A2000BD465DF8047B704780B483B000AF78603A
:101A300000BF0C37BD465DF8047B704780B483B0AF
:101A400000AF786000BF0C37BD465DF8047B70477F
:101A500080B483B000AF786000BF0C37BD465DF83E
:101A6000047B704780B485B000AF78607B6893F8E2
:101A70002030FB73FB7B012B02D0FB7B022B12D1AE
:101A80007B681B685B6803F00203002B02D0042311
:101A9000FB7308E07B681B681B6803F00203002BE4
:101AA00001D00323FB73FB7B18461437BD465DF85A
:101AB000047B704780B483B000AF78607B685B6A5A
:101AC00018460C37BD465DF8047B704780B586B07C
:101AD00000AF78607B68002B01D1012367E27B684F
:101AE0001B6803F00103002B75D0884B9B6803F043
:101AF0000C03042B0CD0854B9B6803F00C03082BC4
:101B000012D1824B5B6803F48003B3F5800F0BD1D5
:101B10007E4B1B6803F40033002B5BD07B685B6853
:101B2000002B57D1012342E27B685B68B3F5803F0D
:101B300006D1764B1B68754A43F4803313601DE071
:101B40007B685B68B3F5A02F0CD1704B1B686F4AA4
:101B500043F4802313606D4B1B686C4A43F480335D
:101B600013600BE0694B1B68684A23F480331360F1
:101B7000664B1B68654A23F4802313607B685B68AF
:101B8000002B13D001F02AFB386108E001F026FB9E
:101B900002463B69D31A642B01D9032307E25B4B4E
:101BA0001B6803F40033002BF0D014E001F016FBA7
:101BB000386108E001F012FB02463B69D31A642B3E
:101BC00001D90323F3E1514B1B6803F40033002BCD
:101BD000F0D100E000BF7B681B6803F00203002B1C
:101BE00063D04A4B9B6803F00C03002B0BD0474B90
:101BF0009B6803F00C03082B1CD1444B5B6803F477
:101C00008003002B16D1414B1B6803F00203002B0D
:101C100005D07B68DB68012B01D00123C7E13B4B7A
:101C20001B6823F0F8027B681B69DB00374913430C
:101C30000B603AE07B68DB68002B20D0344B01223C
:101C40001A6001F0CBFA386108E001F0C7FA0246E9
:101C50003B69D31A022B01D90323A8E12B4B1B6844
:101C600003F00203002BF0D0284B1B6823F0F8028E
:101C70007B681B69DB00254913430B6015E0244B8F
:101C800000221A6001F0AAFA386108E001F0A6FA11
:101C900002463B69D31A022B01D9032387E11B4B70
:101CA0001B6803F00203002BF0D17B681B6803F074
:101CB0000803002B36D07B685B69002B16D0154BD0
:101CC00001221A6001F08AFA386108E001F086FA10
:101CD00002463B69D31A022B01D9032367E10B4B60
:101CE0005B6F03F00203002BF0D01BE0094B0022D6
:101CF0001A6001F073FA38610EE001F06FFA0246E3
:101D00003B69D31A022B07D9032350E10038024064
:101D100000004742800E4742884B5B6F03F002038E
:101D2000002BEAD17B681B6803F00403002B00F052
:101D300097800023FB75814B1B6C03F08053002BB5
:101D40000FD10023BB607D4B1B6C7C4A43F080535A
:101D500013647A4B1B6C03F08053BB60BB68012398
:101D6000FB75774B1B6803F48073002B18D1744B01
:101D70001B68734A43F48073136001F02FFA3861D3
:101D800008E001F02BFA02463B69D31A022B01D975
:101D900003230CE16A4B1B6803F48073002BF0D023
:101DA0007B689B68012B06D1644B1B6F634A43F031
:101DB000010313671CE07B689B68052B0CD15F4B0C
:101DC0001B6F5E4A43F0040313675C4B1B6F5B4A57
:101DD00043F0010313670BE0584B1B6F574A23F086
:101DE00001031367554B1B6F544A23F00403136719
:101DF0007B689B68002B15D001F0F0F938610AE090
:101E000001F0ECF902463B69D31A41F28832934261
:101E100001D90323CBE0494B1B6F03F00203002BD6
:101E2000EED014E001F0DAF938610AE001F0D6F9F9
:101E300002463B69D31A41F28832934201D9032307
:101E4000B5E03E4B1B6F03F00203002BEED1FB7D90
:101E5000012B05D1394B1B6C384A23F08053136496
:101E60007B689B69002B00F0A180344B9B6803F0DA
:101E70000C03082B5CD07B689B69022B41D1314B52
:101E800000221A6001F0AAF9386108E001F0A6F911
:101E900002463B69D31A022B01D9032387E0274B63
:101EA0001B6803F00073002BF0D17B68DA697B6854
:101EB0001B6A1A437B685B6A9B011A437B689B6AB7
:101EC0005B08013B1B041A437B68DB6A1B061B494A
:101ED00013434B601B4B01221A6001F07FF93861FC
:101EE00008E001F07BF902463B69D31A022B01D9C5
:101EF00003235CE0114B1B6803F00073002BF0D050
:101F000054E0104B00221A6001F068F9386108E0D3
:101F100001F064F902463B69D31A022B01D903236D
:101F200045E0064B1B6803F00073002BF0D13DE049
:101F30007B689B69012B07D1012338E00038024000
:101F400000700040600047421B4B5B68FB607B6891
:101F50009B69012B28D0FB6803F480027B68DB6956
:101F60009A4221D1FB6803F03F027B681B6A9A42C8
:101F70001AD1FA6847F6C07313407A68526A920120
:101F8000934211D1FB6803F440327B689B6A5B0883
:101F9000013B1B049A4207D1FB6803F070627B6827
:101FA000DB6A1B069A4201D0012300E00023184699
:101FB0001837BD4680BD00BF0038024080B584B0F0
:101FC00000AF786039607B68002B01D10123CCE041
:101FD000684B1B6803F007033A689A420CD9654BBB
:101FE0003A68D2B21A70634B1B6803F007033A6871
:101FF0009A4201D00123B8E07B681B6803F002031A
:10200000002B20D07B681B6803F00403002B05D055
:10201000594B9B68584A43F4E05393607B681B68B4
:1020200003F00803002B05D0534B9B68524A43F43E
:1020300060439360504B9B6823F0F0027B689B6881
:102040004D4913438B607B681B6803F00103002B31
:1020500044D07B685B68012B07D1474B1B6803F4B6
:102060000033002B19D101237FE07B685B68022BD2
:1020700003D07B685B68032B07D13F4B1B6803F0E1
:102080000073002B09D101236FE03B4B1B6803F069
:102090000203002B01D1012367E0374B9B6823F03B
:1020A00003027B685B68344913438B6001F096F848
:1020B000F8600AE001F092F80246FB68D31A41F298
:1020C0008832934201D903234FE02B4B9B6803F0E6
:1020D0000C027B685B689B009A42EBD1254B1B6826
:1020E00003F007033A689A420CD2224B3A68D2B204
:1020F0001A70204B1B6803F007033A689A4201D01C
:10210000012332E07B681B6803F00403002B08D036
:10211000194B9B6823F4E0527B68DB681649134334
:102120008B607B681B6803F00803002B09D0124BFF
:102130009B6823F460427B681B69DB000E491343F4
:102140008B6000F021F802460B4B9B681B0903F0E3
:102150000F030A49CB5C22FA03F3094A1360094BC7
:102160001B68184600F0F6FF002318461037BD46DE
:1021700080BD00BF003C0240003802400845010815
:1021800000000020040000202DE9B04F90B000AF07
:1021900000237B630023FB6300233B630023BB63BB
:1021A000594B9B6803F00C03082B0DD0082B00F251
:1021B000A180002B02D0042B03D09BE0534BBB63C8
:1021C0009BE0534BBB6398E04F4B5B6803F03F03CE
:1021D0007B634D4B5B6803F48003002B28D04A4B94
:1021E0005B689B0900223B627A623B6AC3F308008A
:1021F0000021474B03FB01F2002300FB03F31344D0
:10220000434AA0FB0212FA620A46BA62FA6A13440F
:10221000FB627B6B0022BB61FA61D7E90623D7E939
:102220000A01FEF799F902460B461346FB6353E099
:10223000354B5B689B0900223B617A613B69C3F3C4
:10224000080A4FF0000B52465B464FF000004FF07B
:102250000001590141EAD261500102460B46B2EB3E
:102260000A0863EB0B094FF000024FF000034FEA3E
:10227000891343EA98634FEA8812B2EB080463EBD0
:1022800009054FF000024FF00003EB0043EA5473DE
:10229000E20014461D4614EB0A033B6045EB0B03BA
:1022A0007B604FF000024FF00003D7E9004529465C
:1022B0008B02214643EA915321468A021046194671
:1022C0007B6B0022BB60FA60D7E90223FEF744F97A
:1022D00002460B461346FB630B4B5B681B0C03F07B
:1022E000030301335B003B63FA6B3B6BB2FBF3F31D
:1022F000BB6302E0054BBB6300BFBB6B18464037B6
:10230000BD46BDE8B08F00BF003802400024F40095
:1023100040787D0180B400AF034B1B681846BD4672
:102320005DF8047B704700BF0000002080B500AF5F
:10233000FFF7F0FF0246054B9B689B0A03F007037B
:102340000349CB5C22FA03F3184680BD00380240F3
:102350001845010880B500AFFFF7DCFF0246054BCA
:102360009B685B0B03F007030349CB5C22FA03F382
:10237000184680BD003802401845010880B489B075
:1023800000AF7860396000237B6100233B6100234C
:10239000BB610023FB616BE10122FB6902FA03F3DD
:1023A0007B613B681B687A6913403B613A697B69D2
:1023B0009A4240F05A813B685B6803F00303012BAB
:1023C00005D03B685B6803F00303022B30D17B68C8
:1023D0009B68BB61FB695B00032202FA03F3DB43EA
:1023E000BA691340BB613B68DA68FB695B0002FABB
:1023F00003F3BA691343BB617B68BA699A607B686F
:102400005B68BB610122FB6902FA03F3DB43BA6933
:102410001340BB613B685B681B0903F00102FB6969
:1024200002FA03F3BA691343BB617B68BA695A6065
:102430003B685B6803F00303032B17D07B68DB6802
:10244000BB61FB695B00032202FA03F3DB43BA6959
:102450001340BB613B689A68FB695B0002FA03F3B7
:10246000BA691343BB617B68BA69DA603B685B6831
:1024700003F00303022B23D1FB69DA087B680832DF
:1024800053F82230BB61FB6903F007039B000F2266
:1024900002FA03F3DB43BA691340BB613B681A6974
:1024A000FB6903F007039B0002FA03F3BA691343C5
:1024B000BB61FB69DA087B680832B96943F822100E
:1024C0007B681B68BB61FB695B00032202FA03F3B4
:1024D000DB43BA691340BB613B685B6803F00302EE
:1024E000FB695B0002FA03F3BA691343BB617B68C3
:1024F000BA691A603B685B6803F44033002B00F054
:10250000B4800023FB60604B5B6C5F4A43F4804304
:1025100053645D4B5B6C03F48043FB60FB685B4A78
:10252000FB699B08023352F82330BB61FB6903F05F
:1025300003039B000F2202FA03F3DB43BA69134043
:10254000BB617B68524A93422BD07B68514A9342CD
:1025500025D07B68504A93421FD07B684F4A9342F4
:1025600019D07B684E4A934213D07B684D4A934200
:102570000DD07B684C4A934207D07B684B4A93420C
:1025800001D107230EE008230CE006230AE005230F
:1025900008E0042306E0032304E0022302E0012311
:1025A00000E00023FA6902F0030292009340BA6946
:1025B0001343BB613549FB699B080233BA6941F893
:1025C00023203B4B9B68BB613B69DB43BA691340EB
:1025D000BB613B685B6803F48013002B03D0BA69CE
:1025E0003B691343BB61324ABB699360304BDB6884
:1025F000BB613B69DB43BA691340BB613B685B6805
:1026000003F40013002B03D0BA693B691343BB6189
:10261000274ABB69D360264B5B68BB613B69DB43E0
:10262000BA691340BB613B685B6803F40033002B5D
:1026300003D0BA693B691343BB611D4ABB69536050
:102640001B4B1B68BB613B69DB43BA691340BB6131
:102650003B685B6803F48033002B03D0BA693B69A5
:102660001343BB61124ABB691360FB690133FB6111
:10267000FB690F2B7FF690AE00BF00BF2437BD462D
:102680005DF8047B704700BF00380240003801400D
:10269000000002400004024000080240000C02401A
:1026A000001002400014024000180240001C0240CA
:1026B000003C014080B483B000AF78600B467B8063
:1026C00013467B707B78002B03D07A887B689A61F5
:1026D00003E07B881A047B689A6100BF0C37BD4613
:1026E0005DF8047B7047000080B586B000AF78606D
:1026F00000237B6100F072FD38617B68002B01D103
:10270000012399E07B68022283F835207B68002250
:1027100083F834207B681B681A687B681B6822F08A
:1027200001021A600FE000F059FD02463B69D31A1E
:10273000052B08D97B6820225A657B68032283F821
:102740003520032378E07B681B681B6803F00103D6
:10275000002BE8D17B681B681B687B617A69384B6A
:1027600013407B617B685A687B689B681A437B686F
:10277000DB681A437B681B691A437B685B691A43F1
:102780007B689B691A437B68DB691A437B681B6A19
:1027900013437A6913437B617B685B6A042B07D11F
:1027A0007B68DA6A7B681B6B13437A6913437B612E
:1027B0007B681B687A691A607B681B685B697B6150
:1027C0007B6923F007037B617B685B6A7A6913434B
:1027D0007B617B685B6A042B17D17B689B6A7A6993
:1027E00013437B617B68DB6A002B0ED0786800F0B6
:1027F00001FB0346002B08D07B6840225A657B68AA
:10280000012283F83520012316E07B681B687A6972
:102810005A61786800F0B8FA0346FB607B68DB6DAC
:102820003F229A40FB689A607B6800225A657B6869
:10283000012283F83520002318461837BD4680BD95
:102840003F8010F080B586B000AFF860B9607A6064
:102850003B600023FB75FB689B6D3B61FB6893F855
:102860003430012B01D1022340E0FB68012283F8C0
:102870003420FB6893F83530DBB2012B2FD1FB6895
:10288000022283F83520FB6800225A653B687A688B
:10289000B968F86800F04AFAFB68DB6D3F229A409D
:1028A0003B699A60FB681B681A68FB681B6842F00A
:1028B00016021A60FB681B6C002B07D0FB681B68B4
:1028C0001A68FB681B6842F008021A60FB681B6804
:1028D0001A68FB681B6842F001021A6005E0FB6899
:1028E000002283F834200223FB75FB7D184618373D
:1028F000BD4680BD80B584B000AF78607B689B6DBD
:10290000FB6000F06BFCB8607B6893F83530DBB29D
:10291000022B08D07B6880225A657B68002283F8EE
:102920003420012352E07B681B681A687B681B68AF
:1029300022F016021A607B681B685A697B681B6864
:1029400022F080025A617B681B6C002B03D17B68EC
:102950009B6C002B07D07B681B681A687B681B6820
:1029600022F008021A607B681B681A687B681B6883
:1029700022F001021A6013E000F030FC0246BB684E
:10298000D31A052B0CD97B6820225A657B68032259
:1029900083F835207B68002283F83420032315E078
:1029A0007B681B681B6803F00103002BE4D17B6884
:1029B000DB6D3F229A40FB689A607B68012283F8B6
:1029C00035207B68002283F8342000231846103716
:1029D000BD4680BD80B483B000AF78607B6893F85B
:1029E0003530DBB2022B04D07B6880225A6501238C
:1029F0000CE07B68052283F835207B681B681A6829
:102A00007B681B6822F001021A60002318460C370D
:102A1000BD465DF8047B704780B586B000AF786036
:102A20000023BB608E4B1B688E4AA2FB03239B0ACC
:102A30007B617B689B6D3B613B691B68FB607B68CE
:102A4000DB6D08229A40FB681340002B1AD07B688C
:102A50001B681B6803F00403002B13D07B681B6802
:102A60001A687B681B6822F004021A607B68DB6DC1
:102A700008229A403B699A607B685B6D43F00102D3
:102A80007B685A657B68DB6D01229A40FB681340C6
:102A9000002B12D07B681B685B6903F08003002B5E
:102AA0000BD07B68DB6D01229A403B699A607B68A2
:102AB0005B6D43F002027B685A657B68DB6D042224
:102AC0009A40FB681340002B12D07B681B681B6880
:102AD00003F00203002B0BD07B68DB6D04229A40CD
:102AE0003B699A607B685B6D43F004027B685A65C2
:102AF0007B68DB6D10229A40FB681340002B43D0AB
:102B00007B681B681B6803F00803002B3CD07B68C4
:102B1000DB6D10229A403B699A607B681B681B68DA
:102B200003F48023002B18D07B681B681B6803F418
:102B30000023002B08D17B681B6C002B24D07B6802
:102B40001B6C786898471FE07B689B6C002B1BD040
:102B50007B689B6C7868984716E07B681B681B68ED
:102B600003F48073002B07D17B681B681A687B68AD
:102B70001B6822F008021A607B681B6C002B03D0D4
:102B80007B681B6C786898477B68DB6D20229A40D5
:102B9000FB681340002B00F08F807B681B681B686C
:102BA00003F01003002B00F087807B68DB6D202290
:102BB0009A403B699A607B6893F83530DBB2052B0D
:102BC00036D17B681B681A687B681B6822F0160286
:102BD0001A607B681B685A697B681B6822F0800258
:102BE0005A617B681B6C002B03D17B689B6C002BAC
:102BF00007D07B681B681A687B681B6822F0080294
:102C00001A607B68DB6D3F229A403B699A607B6863
:102C1000012283F835207B68002283F834207B680A
:102C20001B6D002B7ED07B681B6D7868984779E020
:102C30007B681B681B6803F48023002B1DD07B6816
:102C40001B681B6803F40023002B0DD17B685B6CB1
:102C5000002B31D07B685B6C786898472CE000BF14
:102C600000000020B5814E1B7B68DB6B002B23D05E
:102C70007B68DB6B786898471EE07B681B681B6885
:102C800003F48073002B0FD17B681B681A687B6884
:102C90001B6822F010021A607B68012283F835203D
:102CA0007B68002283F834207B68DB6B002B03D029
:102CB0007B68DB6B786898477B685B6D002B32D054
:102CC0007B685B6D03F00103002B22D07B6805223B
:102CD00083F835207B681B681A687B681B6822F0C4
:102CE00001021A60BB680133BB607A699A4207D35C
:102CF0007B681B681B6803F00103002BF2D100E026
:102D000000BF7B68012283F835207B68002283F8AE
:102D100034207B68DB6C002B05D07B68DB6C78682B
:102D2000984700E000BF1837BD4680BD80B485B02D
:102D300000AFF860B9607A603B60FB681B681A6896
:102D4000FB681B6822F480221A60FB681B683A68E3
:102D50005A60FB689B68402B08D1FB681B687A6847
:102D60009A60FB681B68BA68DA6007E0FB681B685A
:102D7000BA689A60FB681B687A68DA6000BF14372B
:102D8000BD465DF8047B704780B485B000AF7860C5
:102D90007B681B68DBB2103B144AA2FB03231B09B0
:102DA000FB60134AFB6813441B781A467B68DA659C
:102DB000FB68032B09D97B681B6823F47F7323F01E
:102DC00003031A1D7B689A6507E07B681B6823F480
:102DD0007F7323F003037A6893657B689B6D1846C5
:102DE0001437BD465DF8047B704700BFABAAAAAAA2
:102DF0002045010880B485B000AF78600023FB73E4
:102E00007B689B6ABB607B689B69002B1FD1BB689A
:102E1000032B56D801A252F823F000BF2D2E000834
:102E20003F2E00082D2E0008C32E00087B68DB6AA9
:102E300003F08073002B46D00123FB7343E07B68D3
:102E4000DB6AB3F1C07F40D10123FB733DE07B68B7
:102E50009B69B3F5005F21D1BB68032B37D801A272
:102E600052F823F0752E00087B2E0008752E0008FE
:102E70008D2E00080123FB7330E07B68DB6A03F0D2
:102E80008073002B25D00123FB7322E07B68DB6A73
:102E9000B3F1C07F1FD10123FB731CE0BB68022B81
:102EA00003D9BB68032B03D018E00123FB7315E0A3
:102EB0007B68DB6A03F08073002B0ED00123FB7369
:102EC0000BE000BF0AE000BF08E000BF06E000BF63
:102ED00004E000BF02E000BF00E000BFFB7B18463B
:102EE0001437BD465DF8047B704700BF80B485B0E1
:102EF00000AF78607B6803F00703FB600C4BDB6876
:102F0000BB60BA684FF6FF031340BB60FB681A0250
:102F1000BB68134343F0BF6343F40033BB60044A10
:102F2000BB68D36000BF1437BD465DF8047B7047B3
:102F300000ED00E080B400AF044BDB681B0A03F037
:102F400007031846BD465DF8047B704700ED00E0BE
:102F500080B483B000AF0346FB7197F90730002BB4
:102F60000BDBFB7903F01F02074997F907305B0978
:102F7000012000FA02F241F8232000BF0C37BD46C1
:102F80005DF8047B704700BF00E100E080B483B0CF
:102F900000AF03463960FB7197F90730002B0ADB5D
:102FA0003B68DAB20C4997F907301201D2B20B44F0
:102FB00083F800230AE03B68DAB20849FB7903F0A2
:102FC0000F03043B1201D2B20B441A7600BF0C3738
:102FD000BD465DF8047B704700E100E000ED00E0D5
:102FE00080B489B000AFF860B9607A60FB6803F024
:102FF0000703FB61FB69C3F10703042B28BF04230C
:10300000BB61FB690433062B02D9FB69033B00E07B
:1030100000237B614FF0FF32BB6902FA03F3DA430E
:10302000BB681A407B699A404FF0FF317B6901FA17
:1030300003F3D9437B680B40134318462437BD463E
:103040005DF8047B7047000080B582B000AF786007
:103050007B68013BB3F1807F01D301230FE00A4A73
:103060007B68013B53600F214FF0FF30FFF78EFF6D
:10307000054B00229A60044B07221A600023184671
:103080000837BD4680BD00BF10E000E080B582B0CB
:1030900000AF78607868FFF729FF00BF0837BD46AA
:1030A00080BD80B586B000AF0346B9607A60FB731F
:1030B00000237B61FFF73EFF78617A68B968786921
:1030C000FFF78EFF024697F90F3011461846FFF7BB
:1030D0005DFF00BF1837BD4680BD80B582B000AF30
:1030E0000346FB7197F907301846FFF731FF00BF21
:1030F0000837BD4680BD80B582B000AF7860786883
:10310000FFF7A2FF034618460837BD4680BD000002
:1031100080B500AF0E4B1B680D4A43F4007313607B
:103120000B4B1B680A4A43F480631360084B1B680F
:10313000074A43F4807313600320FFF7A7FF0F20B3
:1031400000F008F804F0CCFF0023184680BD00BF53
:10315000003C024080B582B000AF7860124B1A6824
:10316000124B1B7819464FF47A73B3FBF1F3B2FBA1
:10317000F3F31846FFF7BFFF0346002B01D00123EE
:103180000EE07B680F2B0AD8002279684FF0FF30E1
:10319000FFF787FF064A7B681360002300E00123E6
:1031A00018460837BD4680BD0000002008000020FA
:1031B0000400002080B400AF064B1B781A46064B73
:1031C0001B681344044A136000BFBD465DF8047BCE
:1031D000704700BF08000020FC01002080B400AF51
:1031E000034B1B681846BD465DF8047B704700BF63
:1031F000FC01002080B582B000AF78607B68002BB6
:1032000001D1012342E07B6893F84130DBB2002B0F
:1032100006D17B68002283F84020786804F06CFDBA
:103220007B68242283F841207B681B68DA687B680E
:103230001B6822F40052DA60786800F0E1FF7B68D6
:103240001B681A697B681B6822F490421A617B68CC
:103250001B685A697B681B6822F02A025A617B68E6
:103260001B68DA687B681B6842F40052DA607B688E
:1032700000225A647B68202283F841207B68202248
:1032800083F842207B6800225A63002318460837DF
:10329000BD4680BD80B584B000AFF860B96013460C
:1032A000FB80FB6893F84230DBB2202B12D1BB6865
:1032B000002B02D0FB88002B01D101230BE0FB681F
:1032C00000221A63FB881A46B968F86800F0F5FC1A
:1032D000034600E0022318461037BD4680BD0000BB
:1032E00080B58CB000AFF860B9601346FB80FB6816
:1032F00093F84130DBB2202B62D1BB68002B02D0A7
:10330000FB88002B01D101235BE0BA68FB681A62DD
:10331000FB68FA889A84FB68FA88DA84FB680022E2
:103320005A64FB68212283F84120FB689B6B274A83
:10333000DA63FB689B6B264A1A64FB689B6B254A21
:10334000DA64FB689B6B00221A6507F10803FB62D5
:10335000FB68986BFB6A1968FB681B6804331A46A4
:10336000FB88FFF76FFA0346002B08D0FB6810229A
:103370005A64FB68202283F84120012321E0FB6886
:103380001B686FF040021A60FB681B681433BB6156
:10339000BB6953E8003F7B617B6943F08003BB62FC
:1033A000FB681B681433BA6A7A623B62396A7A6ACC
:1033B00041E80023FB61FB69002BE5D1002300E01D
:1033C000022318463037BD4680BD00BF093A0008C9
:1033D000A33A0008273C000880B58CB000AFF86025
:1033E000B9601346FB80FB6893F84230DBB2202BB8
:1033F00046D1BB68002B02D0FB88002B01D10123F2
:103400003FE0FB6801221A63FB6800225A63FB88D5
:103410001A46B968F86800F08BFC034687F82F302D
:10342000FB681B6B012B25D100233B61FB681B68EC
:103430001B683B61FB681B685B683B613B69FB6821
:103440001B680C33BB61BB6953E8003F7B617B6940
:1034500043F01003BB62FB681B680C33BA6A7A62E4
:103460003B62396A7A6A41E80023FB61FB69002B01
:10347000E5D102E0012387F82F3097F82F3000E0E4
:10348000022318463037BD4680BD000080B5BAB073
:1034900000AF78607B681B681B68C7F8E4307B6806
:1034A0001B68DB68C7F8E0307B681B685B69C7F89E
:1034B000DC300023C7F8D8300023C7F8D430D7F861
:1034C000E43003F00F03C7F8D830D7F8D830002B1A
:1034D0000FD1D7F8E43003F02003002B09D0D7F840
:1034E000E03003F02003002B03D0786800F0CAFD21
:1034F00073E2D7F8D830002B00F0DE80D7F8DC304C
:1035000003F00103002B06D1D7F8E03003F49073E9
:10351000002B00F0D180D7F8E43003F00103002B3A
:103520000BD0D7F8E03003F48073002B05D07B6814
:103530005B6C43F001027B685A64D7F8E43003F017
:103540000403002B0BD0D7F8DC3003F00103002B71
:1035500005D07B685B6C43F002027B685A64D7F845
:10356000E43003F00203002B0BD0D7F8DC3003F07B
:103570000103002B05D07B685B6C43F004027B6881
:103580005A64D7F8E43003F00803002B11D0D7F8C1
:10359000E03003F02003002B05D1D7F8DC3003F036
:1035A0000103002B05D07B685B6C43F008027B684D
:1035B0005A647B685B6C002B00F00A82D7F8E43019
:1035C00003F02003002B08D0D7F8E03003F02003ED
:1035D000002B02D0786800F055FD7B681B685B69A2
:1035E00003F04003402B0CBF01230023DBB2C7F8DC
:1035F000D4307B685B6C03F00803002B03D1D7F851
:10360000D430002B4FD0786800F060FC7B681B68DA
:103610005B6903F04003402B41D17B681B68143386
:10362000C7F89C30D7F89C3053E8003FC7F8983073
:10363000D7F8983023F04003C7F8D0307B681B6878
:103640001433D7F8D020C7F8A820C7F8A430D7F88B
:10365000A410D7F8A82041E80023C7F8A030D7F875
:10366000A030002BD9D17B68DB6B002B13D07B689B
:10367000DB6B8A4A1A657B68DB6B1846FFF7AAF991
:103680000346002B16D07B68DB6B1B6D7A68D26B10
:10369000104698470EE0786805F01CFE0AE078684E
:1036A00005F018FE06E0786805F014FE7B6800223D
:1036B0005A648DE100BF8BE17B681B6B012B40F0EE
:1036C0006781D7F8E43003F01003002B00F060812D
:1036D000D7F8E03003F01003002B00F059810023ED
:1036E000BB607B681B681B68BB607B681B685B6892
:1036F000BB60BB687B681B685B6903F04003402BC1
:1037000040F0CE807B68DB6B1B685B68A7F8BE303F
:10371000B7F8BE30002B00F0A9807B689B8DB7F80E
:10372000BE209A4280F0A2807B68B7F8BE20DA857E
:103730007B68DB6BDB69B3F5807F00F088807B689A
:103740001B680C33C7F88830D7F8883053E8003F3F
:10375000C7F88430D7F8843023F48073C7F8B830C2
:103760007B681B680C33D7F8B820C7F89420C7F8DB
:103770009030D7F89010D7F8942041E80023C7F88C
:103780008C30D7F88C30002BD9D17B681B68143370
:103790007B677B6F53E8003F3B673B6F23F0010380
:1037A000C7F8B4307B681B681433D7F8B420C7F867
:1037B0008020FB67F96FD7F8802041E80023BB67C2
:1037C000BB6F002BE1D17B681B6814333B663B6EFB
:1037D00053E8003FFB65FB6D23F04003C7F8B030B2
:1037E0007B681B681433D7F8B020FA66BB66B96EE5
:1037F000FA6E41E800237B667B6E002BE3D17B6889
:10380000202283F842207B6800221A637B681B68B1
:103810000C33FB64FB6C53E8003FBB64BB6C23F0D0
:103820001003C7F8AC307B681B680C33D7F8AC20AA
:10383000BA657B65796DBA6D41E800233B653B6DE8
:10384000002BE3D17B68DB6B1846FFF753F87B68EE
:1038500002225A637B689A8D7B68DB8D9BB2D31AF8
:103860009BB21946786805F0D7FCB3E07B689B8D66
:10387000B7F8BE209A4240F0AD807B68DB6BDB6915
:10388000B3F5807F40F0A6807B6802225A637B6894
:103890009B8D1946786805F0BFFC9BE0933F0008BC
:1038A0007B689A8D7B68DB8D9BB2D31AA7F8CE30EC
:1038B0007B68DB8D9BB2002B00F08E80B7F8CE309A
:1038C000002B00F089807B681B680C33BB63BB6BEB
:1038D00053E8003F7B637B6B23F49073C7F8C830D9
:1038E0007B681B680C33D7F8C8207A643B64396C5A
:1038F0007A6C41E80023FB63FB6B002BE3D17B6810
:103900001B6814337B627B6A53E8003F3B623B6A6F
:1039100023F00103C7F8C4307B681B681433D7F861
:10392000C4203A63FB62F96A3A6B41E80023BB6248
:10393000BB6A002BE3D17B68202283F842207B689E
:1039400000221A637B681B680C333B613B6953E8B8
:10395000003FFB60FB6823F01003C7F8C0307B68B2
:103960001B680C33D7F8C020FA61BB61B969FA69EA
:1039700041E800237B617B69002BE3D17B68022255
:103980005A63B7F8CE301946786805F045FC23E055
:10399000D7F8E43003F08003002B09D0D7F8E030EB
:1039A00003F08003002B03D0786800F003FB14E0E1
:1039B000D7F8E43003F04003002B0ED0D7F8E03006
:1039C00003F04003002B08D0786800F043FB04E0CC
:1039D00000BF02E000BF00E000BFE837BD4680BD89
:1039E00080B483B000AF786000BF0C37BD465DF88F
:1039F000047B704780B483B000AF786000BF0C37A1
:103A0000BD465DF8047B704780B590B000AF78602C
:103A10007B689B6BFB637B681B681B6803F480738C
:103A2000002B37D1FB6B0022DA84FB6B1B6814334D
:103A30007B627B6A53E8003F3B623B6A23F0800372
:103A4000BB63FB6B1B681433BA6B3A63FB62F96AA6
:103A50003A6B41E80023BB62BB6A002BE5D1FB6BEC
:103A60001B680C333B613B6953E8003FFB60FB681C
:103A700043F040037B63FB6B1B680C337A6BFA618A
:103A8000BB61B969FA6941E800237B617B69002B5E
:103A9000E5D102E0F86B05F007FC00BF4037BD46FA
:103AA00080BD80B584B000AF78607B689B6BFB60A5
:103AB000F868FFF795FF00BF1037BD4680BD80B5A1
:103AC0009CB000AF78607B689B6BFB667B681B6873
:103AD0001B6803F48073002B72D1FB6E0022DA8521
:103AE000FB6E1B680C33FB64FB6C53E8003FBB644C
:103AF000BB6C23F48073BB66FB6E1B680C33BA6E21
:103B0000BA657B65796DBA6D41E800233B653B6D15
:103B1000002BE5D1FB6E1B681433BB63BB6B53E812
:103B2000003F7B637B6B23F001037B66FB6E1B68AE
:103B300014337A6E7A643B64396C7A6C41E8002302
:103B4000FB63FB6B002BE5D1FB6E1B6814337B62C0
:103B50007B6A53E8003F3B623B6A23F040033B66CD
:103B6000FB6E1B6814333A6E3A63FB62F96A3A6B78
:103B700041E80023BB62BB6A002BE5D1FB6E20222B
:103B800083F84220FB6E1B6B012B19D1FB6E1B6867
:103B90000C333B613B6953E8003FFB60FB6823F05B
:103BA0001003FB65FB6E1B680C33FA6DFA61BB6199
:103BB000B969FA6941E800237B617B69002BE5D193
:103BC000FB6E00225A63FB6E1B6B012B06D1FB6E52
:103BD0009B8D1946F86E05F01FFB02E0F86E04F0AD
:103BE000D7FD00BF7037BD4680BD80B584B000AF43
:103BF00078607B689B6BFB60FB6801225A63FB6803
:103C00001B6B012B08D1FB689B8D5B089BB219468F
:103C1000F86805F001FB02E0F868FFF7EBFE00BF73
:103C20001037BD4680BD80B584B000AF78600023FA
:103C3000FB607B689B6BBB60BB681B685B6903F0C8
:103C40008003802B0CBF01230023DBB2FB60BB6829
:103C500093F84130DBB2212B08D1FB68002B05D053
:103C6000BB680022DA84B86800F008F9BB681B68FA
:103C70005B6903F04003402B0CBF01230023DBB240
:103C8000FB60BB6893F84230DBB2222B08D1FB68A3
:103C9000002B05D0BB680022DA85B86800F016F961
:103CA000BB685B6C43F01002BB685A64B86805F0EF
:103CB00011FB00BF1037BD4680BD80B485B000AF9A
:103CC000F860B9601346FB80FB68BA689A62FB68CB
:103CD000FA889A85FB68FA88DA85FB6800225A64BC
:103CE000FB68222283F84220FB681B69002B07D067
:103CF000FB681B68DA68FB681B6842F48072DA6054
:103D0000FB681B685A69FB681B6842F001025A6134
:103D1000FB681B68DA68FB681B6842F02002DA6007
:103D2000002318461437BD465DF8047B7047000039
:103D300080B598B000AFF860B9601346FB80BA68F0
:103D4000FB689A62FB68FA889A85FB6800225A64CD
:103D5000FB68222283F84220FB68DB6B444ADA636B
:103D6000FB68DB6B434A1A64FB68DB6B424ADA642C
:103D7000FB68DB6B00221A6507F10803FB65FB6833
:103D8000D86BFB681B6804331946FB6D1A68FB8807
:103D9000FEF758FD0346002B08D0FB6810225A643A
:103DA000FB68202283F8422001235DE000233B6171
:103DB000FB681B681B683B61FB681B685B683B61B9
:103DC0003B69FB681B69002B19D0FB681B680C332F
:103DD0003B643B6C53E8003FFB63FB6B43F4807335
:103DE000BB65FB681B680C33BA6DFA64BB64B96CC5
:103DF000FA6C41E800237B647B6C002BE5D1FB6807
:103E00001B681433FB62FB6A53E8003FBB62BB6A6A
:103E100043F001037B65FB681B6814337A6DBA635A
:103E20007B63796BBA6B41E800233B633B6B002BF0
:103E3000E5D1FB681B681433BB61BB6953E8003FE5
:103E40007B617B6943F040033B65FB681B6814336F
:103E50003A6D7A623B62396A7A6A41E80023FB6113
:103E6000FB69002BE5D1002318466037BD4680BDB5
:103E7000BF3A0008EB3B0008273C000880B489B03B
:103E800000AF78607B681B680C33FB60FB6853E80D
:103E9000003FBB60BB6823F0C003FB617B681B680D
:103EA0000C33FA69BA617B617969BA6941E8002328
:103EB0003B613B69002BE5D17B68202283F84120E0
:103EC00000BF2437BD465DF8047B704780B495B0D1
:103ED00000AF78607B681B680C337B637B6B53E8B7
:103EE000003F3B633B6B23F49073FB647B681B6870
:103EF0000C33FA6C3A64FB63F96B3A6C41E80023CB
:103F0000BB63BB6B002BE5D17B681B6814333B6242
:103F10003B6A53E8003FFB61FB6923F00103BB648C
:103F20007B681B681433BA6CFA62BB62B96AFA6ABE
:103F300041E800237B627B6A002BE5D17B681B6B29
:103F4000012B19D17B681B680C33FB60FB6853E8BD
:103F5000003FBB60BB6823F010037B647B681B6879
:103F60000C337A6CBA617B617969BA6941E80023E4
:103F70003B613B69002BE5D17B68202283F842201E
:103F80007B6800221A6300BF5437BD465DF8047B8E
:103F9000704780B584B000AF78607B689B6BFB6036
:103FA000FB680022DA85F86805F094F900BF103745
:103FB000BD4680BD80B485B000AF78607B6893F863
:103FC0004130DBB2212B3ED17B689B68B3F5805F2B
:103FD00014D17B681B69002B10D17B681B6AFB60C6
:103FE000FB681B881A467B681B68C2F308025A608C
:103FF0007B681B6A9A1C7B681A6208E07B681B6AF4
:10400000591C7A6811621A787B681B685A607B6851
:10401000DB8C9BB2013B9BB27A681946D184002BA2
:104020000FD17B681B68DA687B681B6822F080020E
:10403000DA607B681B68DA687B681B6842F04002C4
:10404000DA60002300E0022318461437BD465DF80D
:10405000047B704780B582B000AF78607B681B68D6
:10406000DA687B681B6822F04002DA607B682022F5
:1040700083F84120786805F017F9002318460837BF
:10408000BD4680BD80B58CB000AF78600023FB6278
:104090000023BB627B6893F84230DBB2222B40F0F6
:1040A000AA807B689B68B3F5805F15D17B681B692C
:1040B000002B11D17B689B6ABB627B681B685B68C5
:1040C0009BB2C3F308039AB2BB6A1A807B689B6AEF
:1040D0009A1C7B689A6224E07B689B6AFB627B681F
:1040E0009B68B3F5805F07D07B689B68002B0AD183
:1040F0007B681B69002B06D17B681B685B68DAB2A2
:10410000FB6A1A7008E07B681B685B68DBB203F02F
:104110007F03DAB2FB6A1A707B689B6A5A1C7B6861
:104120009A627B68DB8D9BB2013B9BB27A68194631
:10413000D185002B5DD17B681B68DA687B681B68C2
:1041400022F02002DA607B681B68DA687B681B68F3
:1041500022F48072DA607B681B685A697B681B688E
:1041600022F001025A617B68202283F842207B689A
:1041700000225A637B681B6B012B35D17B680022C0
:104180001A637B681B680C337B617B6953E8003FD3
:104190003B613B6923F010037B627B681B680C3337
:1041A0007A6A3A62FB61F9693A6A41E80023BB61C5
:1041B000BB69002BE5D17B681B681B6803F010030B
:1041C000102B0AD10023FB607B681B681B68FB6017
:1041D0007B681B685B68FB60FB687B689B8D19468E
:1041E000786805F019F802E0786804F0D1FA002345
:1041F00002E0002300E0022318463037BD4680BDB0
:104200002DE9B04FC0B000AFC7F8F400D7F8F430D4
:104210001B681B6923F44050D7F8F430D968D7F8ED
:10422000F4301A6840EA01031361D7F8F4309A6851
:10423000D7F8F4301B691A43D7F8F4305B691A4396
:10424000D7F8F430DB691343C7F8F830D7F8F43007
:104250001B68DB6823F4164121F00C01D7F8F43019
:104260001A68D7F8F8300B43D360D7F8F4301B68DE
:104270005B6923F44070D7F8F4309969D7F8F430CB
:104280001A6840EA01035361D7F8F4301A688F4B7B
:104290009A4205D0D7F8F4301A688D4B9A4204D16F
:1042A000FEF758F8C7F8FC0003E0FEF73FF8C7F840
:1042B000FC00D7F8F430DB69B3F5004F40F00C8117
:1042C000D7F8FC300022C7F8E830C7F8EC20D7E96F
:1042D0003A4522462B469118B9655B41FB65D7E903
:1042E0001623214612EB0108294643EB01094FF042
:1042F00000024FF000034FEAC90343EA58734FEA44
:10430000C80290469946234618EB0303C7F8E030ED
:104310002B4649EB0303C7F8E430D7F8F4305B6869
:104320000022C7F8D830C7F8DC20D7E936120B4690
:10433000DB183B65134642EB03037B65D7E9142387
:10434000D7E93801FCF708F902460B46614BA3FB9D
:1043500002235B091C01D7F8FC300022C7F8D030DB
:10436000C7F8D420D7E9348942464B469118B9643E
:104370005B41FB64D7E91223414612EB010A49462F
:1043800043EB010B4FF000024FF000034FEACB0369
:1043900043EA5A734FEACA0292469B4643461AEBD7
:1043A0000303C7F8C8304B464BEB0303C7F8CC30C8
:1043B000D7F8F4305B680022C7F8C030C7F8C420D3
:1043C000D7E930120B46DB183B64134642EB03037C
:1043D0007B64D7E91023D7E93201FCF7BDF8024628
:1043E0000B4611463B4BA3FB01235B09642202FBF6
:1043F00003F3CB1ADB0003F13202364BA3FB02239B
:104400005B095B0003F4F8731C44D7F8FC3000220E
:10441000C7F8B830C7F8BC20D7E92E8942464B46CA
:104420009118B9635B41FB63D7E90E2341465118EC
:10443000396349464B417B634FF000024FF0000364
:10444000D7E90CAB5946CB00514643EA517351466C
:10445000CA0010461946034642469B18C7F8B030BA
:104460004B460A4642EB0303C7F8B430D7F8F430A2
:104470005B680022C7F8A830C7F8AC20D7E92A1239
:104480000B46DB18BB62134642EB0303FB62D7E922
:104490000A23D7E92C01FCF75FF802460B460D4BC7
:1044A000A3FB02135B09642101FB03F3D31ADB00B6
:1044B0003233084AA2FB03235B0903F00702D7F853
:1044C000F4301B6822449A6006E100BF00100140EE
:1044D000001401401F85EB51D7F8FC300022C7F8CB
:1044E000A030C7F8A420D7E9288942464B46911846
:1044F00039625B417B62D7E908234146541849463B
:1045000043EB01054FF000024FF00003EB0043EADC
:104510005473E20014461D464346E318C7F898302A
:104520004B4645EB0303C7F89C30D7F8F4305B6883
:104530000022C7F89030C7F894204FF000024FF0E7
:104540000003D7E9244529468B00214643EA9173AD
:1045500021468A00D7E92601FBF7FEFF02460B46FB
:10456000604BA3FB02235B091C01D7F8FC3000223F
:10457000C7F88830C7F88C20D7E9228942464B46D5
:104580009118B9615B41FB61D7E906234146511897
:10459000396149464B417B614FF000024FF0000307
:1045A000D7E904AB5946CB00514643EA5173514613
:1045B000CA0010461946034642469B18C7F8803089
:1045C0004B460A4642EB0303C7F88430D7F8F43071
:1045D0005B680022BB67FA674FF000024FF00003F0
:1045E000D7E91E8949468B00414643EA917341460B
:1045F0008A00D7E92001FBF7AFFF02460B461146C0
:10460000384BA3FB01235B09642202FB03F3CB1AA3
:104610001B013233334AA2FB03235B0903F0F0038F
:104620001C44D7F8FC3000223B677A67D7E91C8925
:1046300042464B469118B9605B41FB60D7E90223C3
:1046400041465118396049464B417B604FF00002AA
:104650004FF00003D7E900AB5946CB00514643EA7F
:1046600051735146CA0010461946034642469B18EC
:10467000BB664B460A4642EB0303FB66D7F8F430B1
:104680005B6800223B667A664FF000024FF0000341
:10469000D7E9188949468B00414643EA9173414660
:1046A0008A00D7E91A01FBF757FF02460B460D4B6C
:1046B000A3FB02135B09642101FB03F3D31A1B0163
:1046C0003233084AA2FB03235B0903F00F02D7F839
:1046D000F4301B6822449A6000BF07F58077BD461E
:1046E000BDE8B08F1F85EB5180B483B000AF786018
:1046F0007B6803F108027B685A607B684FF0FF32E9
:104700009A607B6803F108027B68DA607B6803F1DA
:1047100008027B681A617B6800221A6000BF0C37B0
:10472000BD465DF8047B704780B483B000AF78600D
:104730007B6800221A6100BF0C37BD465DF8047B20
:10474000704780B485B000AF786039607B685B6883
:10475000FB603B68FA685A60FB689A683B689A603D
:10476000FB689B683A685A60FB683A689A603B68E5
:104770007A681A617B681B685A1C7B681A6000BFE4
:104780001437BD465DF8047B704780B485B000AF38
:10479000786039603B681B68BB60BB68B3F1FF3F62
:1047A00003D17B681B69FB600CE07B680833FB600E
:1047B00002E0FB685B68FB60FB685B681B68BA68CB
:1047C0009A42F6D2FB685A683B685A603B685B685D
:1047D0003A689A603B68FA689A60FB683A685A607F
:1047E0003B687A681A617B681B685A1C7B681A6090
:1047F00000BF1437BD465DF8047B704780B485B0B8
:1048000000AF78607B681B69FB607B685B687A68D7
:1048100092689A607B689B687A6852685A60FB6805
:104820005B687A689A4203D17B689A68FB685A6031
:104830007B6800221A61FB681B685A1EFB681A60BD
:10484000FB681B6818461437BD465DF8047B70474B
:1048500080B584B000AF786039607B68FB60FB682E
:10486000002B0BD14FF0500383F31188BFF36F8FF0
:10487000BFF34F8FBB6000BF00BFFDE702F08CFEAF
:10488000FB681A68FB68DB6BF968096C01FB03F3D2
:104890001A44FB689A60FB6800229A63FB681A68F6
:1048A000FB685A60FB681A68FB68DB6B013BF968C0
:1048B000096C01FB03F31A44FB68DA60FB68FF2212
:1048C00083F84420FB68FF2283F845203B68002BD7
:1048D00014D1FB681B69002B1AD0FB6810331846F3
:1048E00001F06AFA0346002B12D00D4B4FF08052B4
:1048F0001A60BFF34F8FBFF36F8F09E0FB6810336F
:104900001846FFF7F1FEFB6824331846FFF7ECFE6C
:1049100002F074FE012318461037BD4680BD00BF6B
:1049200004ED00E080B58EB002AFF860B9607A6047
:104930003B60FB68002B0BD14FF0500383F31188D1
:10494000BFF36F8FBFF34F8FBB6200BF00BFFDE7A8
:104950003B68002B0BD14FF0500383F31188BFF35A
:104960006F8FBFF34F8F7B6200BF00BFFDE77B6897
:10497000002B02D0BB68002B01D0012300E00023F4
:10498000002B0BD14FF0500383F31188BFF36F8FCF
:10499000BFF34F8F3B6200BF00BFFDE77B68002B7A
:1049A00002D1BB68002B01D1012300E00023002BC2
:1049B0000BD14FF0500383F31188BFF36F8FBFF318
:1049C0004F8FFB6100BF00BFFDE750237B617B6918
:1049D000502B0BD04FF0500383F31188BFF36F8F30
:1049E000BFF34F8FBB6100BF00BFFDE77B693B6832
:1049F000FB62FB6A002B0DD0FB6A012283F8462084
:104A000097F83820FB6A009313467A68B968F8680B
:104A100000F040F8FB6A18463037BD4680BD80B5CF
:104A20008AB002AFF860B9601346FB71FB68002BD7
:104A30000BD14FF0500383F31188BFF36F8FBFF397
:104A40004F8F3B6100BF00BFFDE7FB68BA6802FB08
:104A500003F3FB61FB695033184602F07BFAB8613F
:104A6000BB69002B11D0BB697B617B6950337B61D3
:104A7000BB69002283F84620FA79BB69009313468C
:104A80007A69B968F86800F005F8BB6918462037FC
:104A9000BD4680BD80B584B000AFF860B9607A6073
:104AA000FB70BB68002B03D1BB69BA691A6002E0D6
:104AB000BB697A681A60BB69FA68DA63BB69BA686D
:104AC0001A640121B869FFF7C3FEBB69FA7883F85D
:104AD0004C2000BF1037BD4680BD000080B58EB0B1
:104AE00000AFF860B9607A603B6000237B63FB68CD
:104AF0003B633B6B002B0BD14FF0500383F31188CA
:104B0000BFF36F8FBFF34F8FBB6200BF00BFFDE7E6
:104B1000BB68002B03D13B6B1B6C002B01D1012325
:104B200000E00023002B0BD14FF0500383F31188DA
:104B3000BFF36F8FBFF34F8F7B6200BF00BFFDE7F6
:104B40003B68022B03D13B6BDB6B012B01D10123B3
:104B500000E00023002B0BD14FF0500383F31188AA
:104B6000BFF36F8FBFF34F8F3B6200BF00BFFDE706
:104B700001F0E2FA0346002B02D17B68002B01D141
:104B8000012300E00023002B0BD14FF0500383F3EF
:104B90001188BFF36F8FBFF34F8FFB6100BF00BF62
:104BA000FDE702F0F9FC3B6B9A6B3B6BDB6B9A42C7
:104BB00002D33B68022B29D13A68B968386B00F000
:104BC00091FAF8623B6B5B6A002B10D03B6B24338D
:104BD000184601F0F1F80346002B13D03F4B4FF07D
:104BE00080521A60BFF34F8FBFF36F8F0AE0FB6AEA
:104BF000002B07D0394B4FF080521A60BFF34F8F14
:104C0000BFF36F8F02F0FAFC012363E07B68002B97
:104C100003D102F0F3FC00235CE07B6B002B06D198
:104C200007F11403184601F02BF901237B6302F00E
:104C3000E5FC00F089FE02F0AFFC3B6B93F84430DA
:104C40005BB2B3F1FF3F03D13B6B002283F84420FA
:104C50003B6B93F845305BB2B3F1FF3F03D13B6B45
:104C6000002283F8452002F0C9FC3A1D07F1140325
:104C70001146184601F01AF90346002B24D1386B6F
:104C800000F028FB0346002B18D03B6B10337A68EA
:104C90001146184601F03EF8386B00F0B3FA00F008
:104CA00061FE0346002B7FF47CAF0C4B4FF080522B
:104CB0001A60BFF34F8FBFF36F8F72E7386B00F04E
:104CC000A1FA00F04FFE6CE7386B00F09BFA00F0A1
:104CD00049FE002318463837BD4680BD04ED00E08C
:104CE00080B590B000AFF860B9607A603B60FB6857
:104CF000BB63BB6B002B0BD14FF0500383F31188C8
:104D0000BFF36F8FBFF34F8FBB6200BF00BFFDE7E4
:104D1000BB68002B03D1BB6B1B6C002B01D10123A3
:104D200000E00023002B0BD14FF0500383F31188D8
:104D3000BFF36F8FBFF34F8F7B6200BF00BFFDE7F4
:104D40003B68022B03D1BB6BDB6B012B01D1012331
:104D500000E00023002B0BD14FF0500383F31188A8
:104D6000BFF36F8FBFF34F8F3B6200BF00BFFDE704
:104D700002F0F2FCEFF311824FF0500383F311883D
:104D8000BFF36F8FBFF34F8FFA61BB61FB697B632A
:104D9000BB6B9A6BBB6BDB6B9A4202D33B68022BFB
:104DA0002FD1BB6B93F8453087F83330BB6B9B6BCF
:104DB000FB623A68B968B86B00F094F997F9333040
:104DC000B3F1FF3F12D1BB6B5B6A002B16D0BB6BFC
:104DD0002433184600F0F0FF0346002B0ED07B680A
:104DE000002B0BD07B6801221A6007E097F8333064
:104DF0000133DBB25AB2BB6B83F845200123FB635E
:104E000001E00023FB637B6B7B617B6983F311888B
:104E100000BFFB6B18464037BD4680BD80B58CB0E7
:104E200000AFF860B9607A600023FB62FB68BB6288
:104E3000BB6A002B0BD14FF0500383F31188BFF3F3
:104E40006F8FBFF34F8F3B6200BF00BFFDE7BB68B2
:104E5000002B03D1BB6A1B6C002B01D1012300E0A6
:104E60000023002B0BD14FF0500383F31188BFF3C5
:104E70006F8FBFF34F8FFB6100BF00BFFDE701F0F5
:104E80005BF90346002B02D17B68002B01D1012383
:104E900000E00023002B0BD14FF0500383F3118867
:104EA000BFF36F8FBFF34F8FBB6100BF00BFFDE744
:104EB00002F072FBBB6A9B6B7B627B6A002B1FD08C
:104EC000B968B86A00F078F97B6A5A1EBB6A9A63BF
:104ED000BB6A1B69002B0FD0BB6A1033184600F069
:104EE0006BFF0346002B07D03C4B4FF080521A60FB
:104EF000BFF34F8FBFF36F8F02F080FB012369E098
:104F00007B68002B03D102F079FB002362E0FB6A8F
:104F1000002B06D107F11003184600F0B1FF012362
:104F2000FB6202F06BFB00F00FFD02F035FBBB6A89
:104F300093F844305BB2B3F1FF3F03D1BB6A002268
:104F400083F84420BB6A93F845305BB2B3F1FF3F6E
:104F500003D1BB6A002283F8452002F04FFB3A1DC3
:104F600007F110031146184600F0A0FF0346002B7E
:104F700023D1B86A00F098F90346002B17D0BB6A1A
:104F800024337A681146184600F0C4FEB86A00F06F
:104F900039F900F0E7FC0346002B89D10F4B4FF0A5
:104FA00080521A60BFF34F8FBFF36F8F80E7B86AEC
:104FB00000F028F900F0D6FC7AE7B86A00F022F990
:104FC00000F0D0FCB86A00F06FF90346002B3FF404
:104FD0006FAF002318463037BD4680BD04ED00E0BA
:104FE00080B58EB000AFF860B9607A60FB683B6353
:104FF0003B6B002B0BD14FF0500383F31188BFF3B1
:105000006F8FBFF34F8F3B6200BF00BFFDE7BB68F0
:10501000002B03D13B6B1B6C002B01D1012300E063
:105020000023002B0BD14FF0500383F31188BFF303
:105030006F8FBFF34F8FFB6100BF00BFFDE702F032
:105040008BFBEFF311824FF0500383F31188BFF312
:105050006F8FBFF34F8FBA617B61BB69FB623B6BA4
:105060009B6BBB62BB6A002B2FD03B6B93F8443029
:1050700087F82730B968386B00F09EF8BB6A5A1E73
:105080003B6B9A6397F92730B3F1FF3F12D13B6B2B
:105090001B69002B16D03B6B1033184600F08CFEBA
:1050A0000346002B0ED07B68002B0BD07B680122BF
:1050B0001A6007E097F827300133DBB25AB23B6B36
:1050C00083F8442001237B6301E000237B63FB6AB8
:1050D0003B613B6983F3118800BF7B6B184638370F
:1050E000BD4680BD80B586B000AFF860B9607A601B
:1050F00000237B61FB689B6B3B61FB681B6C002B97
:105100000DD1FB681B68002B4DD1FB689B681846CE
:1051100001F030F87861FB6800229A6043E07B6818
:10512000002B19D1FB685868FB681B6C1A46B968DC
:105130000CF065FEFB685A68FB681B6C1A44FB6840
:105140005A60FB685A68FB689B689A422BD3FB68DD
:105150001A68FB685A6026E0FB68D868FB681B6C1D
:105160001A46B9680CF04BFEFB68DA68FB681B6CEA
:105170005B421A44FB68DA60FB68DA68FB681B680C
:105180009A4207D2FB689A68FB681B6C5B421A4420
:10519000FB68DA607B68022B05D13B69002B02D0EB
:1051A0003B69013B3B613B695A1CFB689A637B6925
:1051B00018461837BD4680BD80B582B000AF786014
:1051C00039607B681B6C002B18D07B68DA687B68C1
:1051D0001B6C1A447B68DA607B68DA687B689B68C2
:1051E0009A4203D37B681A687B68DA607B68D96867
:1051F0007B681B6C1A4638680CF001FE00BF08374C
:10520000BD4680BD80B584B000AF786002F0C4F9BF
:105210007B6893F84530FB7311E07B685B6A002B79
:1052200012D07B682433184600F0C6FD0346002BDD
:1052300001D000F09FFEFB7B013BDBB2FB7397F9D3
:105240000F30002BE9DC00E000BF7B68FF2283F811
:10525000452002F0D3F902F09FF97B6893F84430BF
:10526000BB7311E07B681B69002B12D07B68103385
:10527000184600F0A1FD0346002B01D000F07AFE95
:10528000BB7B013BDBB2BB7397F90E30002BE9DC33
:1052900000E000BF7B68FF2283F8442002F0AEF9F3
:1052A00000BF1037BD4680BD80B584B000AF7860C8
:1052B00002F072F97B689B6B002B02D10123FB602B
:1052C00001E00023FB6002F099F9FB6818461037F3
:1052D000BD4680BD80B584B000AF786002F05CF957
:1052E0007B689A6B7B68DB6B9A4202D10123FB607F
:1052F00001E00023FB6002F081F9FB6818461037DB
:10530000BD4680BD80B485B000AF786039600023B1
:10531000FB6014E00F4AFB6852F83330002B0BD1CE
:105320000C49FB683A6841F833200A4AFB68DB0005
:1053300013447A685A6006E0FB680133FB60FB683F
:10534000072BE7D900BF00BF1437BD465DF8047BCB
:10535000704700BF0002002080B586B000AFF86043
:10536000B9607A60FB687B6102F016F97B6993F89B
:1053700044305BB2B3F1FF3F03D17B69002283F875
:1053800044207B6993F845305BB2B3F1FF3F03D112
:105390007B69002283F8452002F030F97B699B6B22
:1053A000002B06D17B6924337A68B968184600F06F
:1053B000D7FC7869FFF726FF00BF1837BD4680BDD0
:1053C00080B58EB004AFF860B9607A603B607B6BEB
:1053D000002B0BD14FF0500383F31188BFF36F8F75
:1053E000BFF34F8F3B6200BF00BFFDE7BB6B002BDD
:1053F0000BD14FF0500383F31188BFF36F8FBFF3CE
:105400004F8FFB6100BF00BFFDE75C233B613B6941
:105410005C2B0BD04FF0500383F31188BFF36F8FD9
:10542000BFF34F8FBB6100BF00BFFDE73B69BB6BA4
:10543000002B1ED07B6B002B1BD0BB6B7B627B6A6F
:105440007A6B1A637B6A022283F859200023039344
:105450007B6A029307F1140301933B6B00933B6853
:105460007A68B968F86800F050F8786A00F0DEF8F9
:1054700001E000237B617B6918462837BD4680BD6B
:1054800080B58CB004AFF860B9603B601346FB8018
:10549000FB889B00184601F05DFD78617B69002B5D
:1054A0000ED05C2001F056FDF861FB69002B03D0A3
:1054B000FB697A691A6305E0786901F019FE01E079
:1054C0000023FB61FB69002B17D0FB69002283F8E6
:1054D0005920FA8800230393FB690293FB6A019326
:1054E000BB6A00933B68B968F86800F00EF8F86989
:1054F00000F09CF80123BB6102E04FF0FF33BB6179
:10550000BB6918462037BD4680BD80B588B000AF66
:10551000F860B9607A603B603B6B186B7B689B00FE
:105520001A46A5210CF082FB3B6B1A6B7B6803F1DA
:105530008043013B9B001344BB61BB6923F007031D
:10554000BB61BB6903F00703002B0BD04FF0500386
:1055500083F31188BFF36F8FBFF34F8F7B6100BF61
:1055600000BFFDE7BB68002B1FD00023FB6112E0EA
:10557000BA68FB69134419783A6BFB6913443433F6
:105580000A461A70BA68FB6913441B78002B06D0D0
:10559000FB690133FB61FB690F2BE9D900E000BF18
:1055A0003B6B002283F8432003E03B6B002283F82F
:1055B0003420BB6A372B01D93723BB623B6BBA6AF5
:1055C000DA623B6BBA6ADA643B6B00221A653B6BAA
:1055D00004331846FFF7A8F83B6B18331846FFF75B
:1055E000A3F83B6B3A6B1A61BB6AC3F138023B6BA1
:1055F0009A613B6B3A6B5A623B6B00225A653B6B7C
:10560000002283F858203A68F968B86901F090FEE2
:1056100002463B6B1A60FB6A002B02D0FB6A3A6BB6
:105620001A6000BF2037BD4680BD000080B582B043
:1056300000AF786001F0B0FF2D4B1B6801332C4A9E
:1056400013602C4B1B68002B09D12A4A7B6813601E
:10565000274B1B68012B10D100F0B0FC0DE0264B4E
:105660001B68002B09D1234B1B68DA6A7B68DB6A55
:105670009A4202D81F4A7B681360204B1B68013393
:105680001E4A13601D4B1A687B685A647B68DA6A8D
:105690001B4B1B689A4203D97B68DB6A184A13606C
:1056A0007B68DA6A13469B0013449B00154A1A4430
:1056B0007B68043319461046FFF743F801F09EFF5C
:1056C0000D4B1B68002B0ED00A4B1B68DA6A7B68F7
:1056D000DB6A9A4207D20C4B4FF080521A60BFF33C
:1056E0004F8FBFF36F8F00BF0837BD4680BD00BF2F
:1056F000140700204002002020070020300700206F
:105700001C0700204402002004ED00E080B58AB0B0
:1057100000AF7860396000237B627B68002B0BD17F
:105720004FF0500383F31188BFF36F8FBFF34F8F98
:105730007B6100BF00BFFDE73B68002B0BD14FF042
:10574000500383F31188BFF36F8FBFF34F8F3B611B
:1057500000BF00BFFDE72A4B1B68002B0BD04FF0AA
:10576000500383F31188BFF36F8FBFF34F8FFB603C
:1057700000BF00BFFDE700F0E7F8224B1B683B626B
:105780007B681B683A681344FB617B681B683A6A54
:105790009A420BD27B681B68FA699A4211D2FA6965
:1057A0003B6A9A420DD901237B620AE07B681B6841
:1057B000FA699A4203D3FA693B6A9A4201D90123F2
:1057C0007B627B68FA691A607B6A002B06D0FA69F3
:1057D0003B6AD31A0021184600F03CFD00F0C2F8E5
:1057E000B861BB69002B07D1074B4FF080521A609C
:1057F000BFF34F8FBFF36F8F00BF2837BD4680BD0B
:105800003C0700201807002004ED00E080B584B0BC
:1058100000AF78600023FB607B68002B18D0144B2E
:105820001B68002B0BD04FF0500383F31188BFF39C
:105830006F8FBFF34F8FBB6000BF00BFFDE700F06D
:1058400083F80021786800F005FD00F08BF8F8601F
:10585000FB68002B07D1074B4FF080521A60BFF353
:105860004F8FBFF36F8F00BF1037BD4680BD00BFA5
:105870003C07002004ED00E080B58AB004AF0023AF
:10588000BB6000237B603A46391D07F108031846C8
:1058900001F02CFB39687B68BA68029201930023FF
:1058A000009300230A4622492248FFF789FD034658
:1058B000214A1360204B1B68002B02D001237B611F
:1058C00001E000237B617B69012B02D100F016FD12
:1058D00078617B69012B16D14FF0500383F3118857
:1058E000BFF36F8FBFF34F8F3B6100BF134B4FF080
:1058F000FF321A60124B01221A60124B00221A600A
:1059000001F0A6FD0FE07B69B3F1FF3F0BD14FF033
:10591000500383F31188BFF36F8FBFF34F8FFB608A
:1059200000BF00BFFDE700BF1837BD4680BD00BF08
:10593000783E01088D5F00083807002034070020FA
:10594000200700201807002080B400AF044B1B681C
:105950000133034A136000BFBD465DF8047B704706
:105960003C07002080B584B000AF0023FB6000231B
:10597000BB60424B1B68002B0BD14FF0500383F3ED
:105980001188BFF36F8FBFF34F8F3B6000BF00BF25
:10599000FDE701F001FE394B1B68013B374A1360FC
:1059A000364B1B68002B62D1354B1B68002B5ED039
:1059B0002FE0344BDB68DB68FB60FB68183318466C
:1059C000FEF71CFFFB6804331846FEF717FFFB6861
:1059D000DA6A2D4B1B689A4203D9FB68DB6A2A4AB4
:1059E0001360FB68DA6A13469B0013449B00274A46
:1059F0001A44FB68043319461046FEF7A2FEFB6802
:105A0000DA6A234B1B68DB6A9A4202D3214B0122DC
:105A10001A601C4B1B68002BCBD1FB68002B01D0FC
:105A200000F06AFB1C4B1B687B607B68002B10D06E
:105A300000F058F80346002B02D0164B01221A60E2
:105A40007B68013B7B607B68002BF1D1124B00220D
:105A50001A60104B1B68002B09D00123BB600F4B51
:105A60004FF080521A60BFF34F8FBFF36F8F01F07A
:105A7000C5FDBB6818461037BD4680BD3C070020F9
:105A800014070020D40600201C0700204402002038
:105A900040020020280700202407002004ED00E039
:105AA00080B483B000AF054B1B687B607B681846F1
:105AB0000C37BD465DF8047B704700BF1807002017
:105AC00080B582B000AF01F047FE00237B60044B3D
:105AD0001B683B603B6818460837BD4680BD00BF69
